:1000000010C02AC029C028C027C026C025C024C0CF
:1000100023C022C021C020C01FC01EC01DC0F7C306
:100020001AC411241FBECFE5D1E0DEBFCDBF10E062
:10003000A0E6B0E0E2E7F9E002C005900D92A2363A
:10004000B107D9F720E0A2E6B0E001C01D92A33EBF
:10005000B207E1F7DDD28BC4D3CFEF92FF920F93BB
:100060001F93CF93DF93FC018081C381D4812881CA
:1000700041E050E060E070E07A018B0104C0EE0CDA
:10008000FF1C001F111F8A95D2F7D801C701822BD0
:100090008883858190810180F281E02D8130A9F0F3
:1000A000808104C0440F551F661F771F9A95D2F7B1
:1000B000409550956095709548234083DF91CF918E
:1000C0001F910F91FF90EF900895808104C0440F1D
:1000D000551F661F771F9A95D2F7482B4083DF91F3
:1000E000CF911F910F91FF90EF900895EF92FF92A3
:1000F0000F931F93CF93DF9363E06093640028E333
:1001000030E0309366002093650087E390E09093A1
:100110006800809367001092690010926D00309320
:100120006F0020936E009093710080937000109286
:10013000720041E04093760030937800209377007E
:1001400090937A008093790010927B0072E0709314
:100150007F003093810020938000909383008093F0
:1001600082001092840087E0809388002BE330E0C7
:1001700030938A00209389008AE390E090938C006A
:1001800080938B0010928D004093910030939300E8
:1001900020939200909395008093940049E350E05F
:1001A000509397004093960010929D0010929800F3
:1001B0001092990010929A0010929B0010929C004D
:1001C00070939E003093A00020939F009093A20014
:1001D0008093A1005093A4004093A3001092AA0022
:1001E0001092A5001092A6001092A7001092A800ED
:1001F0001092A9006093AB003093AD002093AC0047
:100200009093AF008093AE005093B1004093B00044
:100210001092B7001092B2001092B3001092B40086
:100220001092B5001092B600C4E6D0E0CE0115DF02
:10023000299600E0C139D007C9F7E1E9F0E041E0D3
:1002400050E060E070E08081C381D48128817A0130
:100250008B0104C0EE0CFF1C001F111F8A95D2F702
:10026000D801C70180959095A095B0958223888389
:100270008081C181D28128817A018B0104C0EE0C7A
:10028000FF1C001F111F8A95D2F7D801C701822BCE
:1002900088833D9600E0E83BF007A9F6DF91CF9117
:1002A0001F910F91FF90EF900895FC01858130819F
:1002B0000180F281E02D2081813091F081E090E099
:1002C000A0E0B0E004C0880F991FAA1FBB1F3A9599
:1002D000D2F780959095A095B0958223808308955C
:1002E00081E090E0A0E0B0E004C0880F991FAA1F51
:1002F000BB1F3A95D2F7822B808308950F931F93EB
:10030000FC019081A381B4818C9141E050E060E0D8
:1003100070E08A019B0104C0000F111F221F331FD0
:100320009A95D2F7009510952095309508230C9357
:1003300090810180F281E02D808104C0440F551F1F
:10034000661F771F9A95D2F7482B40831F910F9114
:1003500008952FEF83ED90E3215080409040E1F726
:1003600000C0000008958F929F92AF92BF92CF92EB
:10037000DF92EF92FF921F93CF93DF9300D000D0D4
:100380001F92CDB7DEB7FC01408123813481D901B2
:100390001C91812C912C540183947501640104C03B
:1003A000CC0CDD1CEE1CFF1C4A95D2F7B701A60150
:1003B000412B4C9325E023BF12BE50812181328115
:1003C000D9014C91D501C40104C0880F991FAA1FFF
:1003D000BB1F5A95D2F780959095A095B095842330
:1003E000D9018C9382B7803AE8F382E083BF12BED2
:1003F000408121813281D9011C91812C912C5401A1
:1004000083947501640104C0CC0CDD1CEE1CFF1C40
:100410004A95D2F7B701A601412B4C934081238125
:100420003481D9011C917501640104C0CC0CDD1C20
:10043000EE1CFF1C4A95D2F7B701A60140955095D6
:100440006095709541234C93508121813281D9016F
:100450004C91D501C40104C0880F991FAA1FBB1F6E
:100460005A95D2F780959095A095B0958423D9019F
:100470008C9312BE04C082B78C3308F0A4C0A5814F
:10048000B6814C91808150E060E070E004C07695C8
:100490006795579547958A95D2F740FDECCF12BEE8
:1004A00004C082B7843608F08EC0A581B6818C91D5
:1004B000208190E0A0E0B0E004C0B695A7959795A4
:1004C00087952A95D2F780FFECCF12BE04C082B781
:1004D000843608F078C0A581B6818C91208190E0A7
:1004E000A0E0B0E004C0B695A795979587952A95AA
:1004F000D2F780FDECCFAE014F5F5F4FBE016A5F68
:100500007F4FC12CD12C7601C39427E030E012BE7E
:1005100004C082B7863408F056C0A581B6818C919C
:10052000108190E0A0E0B0E004C0B695A795979543
:1005300087951A95D2F780FFECCF12BE04C082B720
:100540008A3508F040C0A581B6818C91108190E079
:10055000A0E0B0E004C0B695A795979587951A9549
:10056000D2F780FDECCF82B796EF980F943208F067
:100570003CC0D701C601022E04C0880F991FAA1FD4
:10058000BB1F0A94D2F78095DA019C9189238C9342
:100590002150310908F0BBCF4F5F5F4F4617570717
:1005A00009F0B3CF49813A81842F830F2B81820FC9
:1005B0009C81890F5D81581306C04783308721874E
:1005C000928781E001C080E00F900F900F900F9014
:1005D0000F90DF91CF911F91FF90EF90DF90CF9020
:1005E000BF90AF909F908F9008958E52883258F7A9
:1005F000DA011C91D701C601022E04C0880F991F91
:10060000AA1FBB1F0A94D2F7812BDA018C93C0CFAB
:10061000CF93DF93CDB7DEB727970FB6F894DEBF41
:100620000FBECDBF78941F8282E08D831C825EDD79
:1006300080E4E1D089E690E09093BB008093BA001B
:1006400088E990E09093BD008093BC008AE990E037
:100650009093BF008093BE0085EA90E09093C10024
:100660008093C00087EA90E09093C3008093C2001B
:1006700082EB90E09093C5008093C40084EB90E0FF
:100680009093C7008093C600CE0106969093C90050
:100690008093C80005979093CB008093CA0006967C
:1006A0009093CD008093CC0004979093CF008093DB
:1006B000CE0001979093D1008093D0000396909341
:1006C000D3008093D20001979093D5008093D400FB
:1006D0002FEF89E698E1215080409040E1F700C07B
:1006E000000010E0E12CBB24B3945BC0113008F48F
:1006F0006AC0123031F5C814D90409F46BC021E086
:10070000E21609F473C0E21608F46BC082E0E81642
:1007100009F462C093E0E91203C0B0928D00E12CAD
:100720008DE690E0C2DD86E790E0BFDD8FE790E0E8
:10073000BCDD88E890E0B9DD2FEF821A920A9D8235
:100740008C8281E990E00FDE81110AC0109298003E
:100750001092990010929A0010929B0010929C00A7
:100760008EE990E000DE81110AC01092A50010927F
:10077000A6001092A7001092A8001092A9008BEA80
:1007800090E0F1DD81110AC01092B2001092B30026
:100790001092B4001092B5001092B60084E690E07A
:1007A00084DD113009F0A2CFCB80D12CDC2CCC24FD
:1007B0008A81C82A0D8110E0102F00278C81480102
:1007C000882A12E0BECF8F81813009F0BACF1F8214
:1007D00011E0B7CF10E0B5CFB092840083E0E82EEF
:1007E0009FCFB0927200EE24E3949ACFE0927B0008
:1007F00092E0E92E95CFDC98DE98809360008AB372
:100800008F7A8ABB88EA8DB980EF8EB908951F92DE
:100810000F920FB60F9211248F931092B900D698B1
:1008200002C0CE9902C0CC99FCCFCE9B0AC088EB07
:100830008DB980EF8EB98F910F900FBE0F901F90E2
:10084000189588EE8DB980EF8EB98F910F900FBEFD
:100850000F901F9018951F920F920FB60F921124B0
:100860008F939F93EF93FF938091B900823009F4A7
:1008700051C000F18430A1F108F444C0853089F4FE
:1008800084E08093B9008091620081115AC08FB1D9
:100890008093630081E0809362001FB8D69A8EE750
:1008A0008EB9FF91EF919F918F910F900FBE0F9096
:1008B0001F9018958823B1F1813099F7E09163007A
:1008C000E531A8F01FB8809163008F5F80936300CB
:1008D00082E08093B900D69ADE9A80E78EB9E1CFA4
:1008E00085E08093B900D69880E78EB9DACFF0E042
:1008F000EE0FFF1FE654FF4F0190F081E02D808145
:100900008FB9E1CF8FB18823C9F288EA8DB980E72A
:100910008EB9C7CFDE9883E08093B900D6988EE772
:100920008EB9BFCF8FB1882331F08FB1869590916A
:1009300060008913EACF789B14C081E08093B900EE
:10094000ACCFE0916300E53108F0A7CFF0E0EE0F07
:10095000FF1FE654FF4F0190F081E02D8FB180839F
:100960009CCF1092620084E08093B90096CFF894F7
:02097000FFCFB7
:02097200400043
:00000001FF
