:100000000EC028C05CC19BC125C024C023C022C033
:1000100021C020C01FC01EC01DC0E4C1FEC11124EC
:100020001FBECFE5D2E0DEBFCDBF10E0A0E6B0E05E
:10003000E6E2F5E002C005900D92A236B107D9F7CD
:1000400020E0A2E6B0E001C01D92A239B207E1F7BC
:10005000DCD067C2D5CFEF92FF920F931F93CF935F
:10006000DF93FC018081C381D481288141E050E08D
:1000700060E070E07A018B0104C0EE0CFF1C001FF1
:10008000111F8A95D2F7D801C701822B88838581F9
:1000900090810180F281E02D813051F4808104C093
:1000A000440F551F661F771F9A95D2F7482B0DC036
:1000B000808104C0440F551F661F771F9A95D2F7A1
:1000C000409550956095709548234083DF91CF917E
:1000D0001F910F91FF90EF900895FC018581308171
:1000E0000180F281E02D2081813069F481E090E08F
:1000F000A0E0B0E004C0880F991FAA1FBB1F3A956B
:10010000D2F7822B10C081E090E0A0E0B0E004C004
:10011000880F991FAA1FBB1F3A95D2F7809590951B
:10012000A095B0958223808308950F931F93FC01BF
:100130009081A381B4818C9141E050E060E070E057
:100140008A019B0104C0000F111F221F331F9A95C3
:10015000D2F7009510952095309508230C93908147
:100160000180F281E02D808104C0440F551F661F7D
:10017000771F9A95D2F7482B40831F910F910895CE
:10018000CF93DF93E4E6F0E083E0808328E330E080
:100190003283218347E350E05483438381E08583A6
:1001A00092E3908764E0618733872287558744878D
:1001B0008687918BC6E7D0E088835C834B833A8344
:1001C000298326E330E03E832D838F83CF0143DFF5
:1001D0008DE690E040DFCE01A8DF3881E981FA8129
:1001E000208181E090E0A0E0B0E004C0880F991F7A
:1001F000AA1FBB1F3A95D2F780959095A095B09510
:1002000082238083DF91CF910895CF93DF9300D035
:10021000CDB7DEB77894B4DF8BB780628BBF3091F7
:100220007D0025B381E090E0A0E0B0E004C0880F3D
:10023000991FAA1FBB1F3A95D2F7822B85BB80B7A7
:10024000846080BF80B7887F80BF89E98EBD89B711
:10025000806489BF81E4BAD089E690E090938200FF
:10026000809381008CE690E09093840080938300DB
:1002700082E790E0909386008093850085E790E088
:100280009093880080938700CE01029690938A0015
:1002900080938900019790938C0080938B002FEFBF
:1002A00089E698E1215080409040E1F700C00000CD
:1002B00084E690E012DF8DE690E00FDFF0CF1F9232
:1002C0000F920FB60F9211242F933F934F935F938A
:1002D0006F937F938F939F93AF93BF93CF93EF933E
:1002E000FF93E0917B00F0917C008081209176006B
:1002F00090E002C0959587952A95E2F780FF0DC0A2
:1003000010927E00C1E0C093690084E690E0E5DED3
:10031000C09372008DE690E0E0DEFF91EF91CF9107
:10032000BF91AF919F918F917F916F915F914F910D
:100330003F912F910F900FBE0F901F9018951F9215
:100340000F920FB60F9211242F933F934F935F9309
:100350006F937F938F939F93AF93BF93EF93FF938D
:1003600080917E008F5F80937E0090916C0024E6E8
:1003700030E0291B310990E0281739072CF410923E
:10038000690084E690E0A9DE8091750024E630E003
:10039000281B310980917E0090E0281739072CF442
:1003A000109272008DE690E098DEFF91EF91BF9180
:1003B000AF919F918F917F916F915F914F913F91FD
:1003C0002F910F900FBE0F901F901895C298C09854
:1003D0008093600087B38A7F87BB88EA8DB980EFFE
:1003E0008EB908951F920F920FB60F9211248F931A
:1003F00010928000B898B29B02C0B09BFCCFB0991D
:1004000002C088EE01C088EB8DB980EF8EB98F9164
:100410000F900FBE0F901F9018951F920F920FB65E
:100420000F9211248F939F93EF93FF9380918000FD
:10043000823009F128F4882359F0813041F168C0F5
:10044000843009F43FC0E8F0853009F441C060C051
:100450008FB1882331F08FB1869590916000891318
:1004600013C0789B02C081E003C01092620084E058
:100470008093800049C0C09883E080938000B89842
:1004800045C08FB1882319F088EA8DB91FC0E0916B
:100490006300E93058F4F0E0EE0FFF1FEF57FF4F15
:1004A0000190F081E02D80818FB901C01FB880914B
:1004B00063008F5F8093630082E080938000B89A2E
:1004C000C09A04C085E080938000B89880E71FC080
:1004D00084E08093800080916200811107C08FB119
:1004E0008093630081E0809362000EC0E09163001E
:1004F000E93050F4F0E0EE0FFF1FEF57FF4F01908F
:10050000F081E02D8FB180831FB8B89A8EE78EB945
:10051000FF91EF919F918F910F900FBE0F901F90C1
:060520001895F894FFCFCE
:02052600410092
:00000001FF
