:100000000EC028C027C026C025C024C023C022C0DF
:1000100021C020C01FC01EC01DC063C186C11124E5
:100020001FBECFE5D2E0DEBFCDBF10E0A0E6B0E05E
:10003000E6E4F4E002C005900D92A236B107D9F7CC
:1000400020E0A2E6B0E001C01D92A239B207E1F7BC
:1000500003D1F7C1D5CFEF92FF920F931F93CF93A8
:10006000DF93FC018081C381D481288141E050E08D
:1000700060E070E07A018B0104C0EE0CFF1C001FF1
:10008000111F8A95D2F7D801C701822B88838581F9
:1000900090810180F281E02D8130A9F0808104C03F
:1000A000440F551F661F771F9A95D2F740955095BC
:1000B0006095709548234083DF91CF911F910F91F8
:1000C000FF90EF900895808104C0440F551F661F74
:1000D000771F9A95D2F7482B4083DF91CF911F91DC
:1000E0000F91FF90EF900895CF93DF93E4E6F0E057
:1000F00083E0808328E330E03283218347E350E0CC
:100100005483438381E08583108694E0918733870D
:100110002287558744878687118AC6E7D0E088837F
:100120005C834B833A83298326E330E03E832D832F
:100130008F83CF0190DF8DE690E08DDF3881EB81FA
:10014000FC81208181E090E0A0E0B0E0AC01BD0145
:1001500004C0440F551F661F771F3A95D2F740958C
:10016000509560957095422340833881E981FA81EA
:100170002081AC01BD0104C0440F551F661F771FCD
:100180003A95D2F7422B40833881E981FA81208168
:1001900004C0880F991FAA1FBB1F3A95D2F78095FC
:1001A0009095A095B09582238083DF91CF9108959B
:1001B000FC01858130810180F281E02D2081813038
:1001C00091F081E090E0A0E0B0E004C0880F991FBA
:1001D000AA1FBB1F3A95D2F780959095A095B09530
:1001E00082238083089581E090E0A0E0B0E004C025
:1001F000880F991FAA1FBB1F3A95D2F7822B8083C5
:1002000008950F931F93FC019081A381B4818C9179
:1002100041E050E060E070E08A019B0104C0000F03
:10022000111F221F331F9A95D2F700951095209524
:10023000309508230C9390810180F281E02D80811C
:1002400004C0440F551F661F771F9A95D2F7482B9D
:1002500040831F910F910895CF93DF9300D0CDB7C6
:10026000DEB7789441DF81E430D089E690E0909366
:1002700082008093810082E790E0909384008093D5
:100280008300CE01029690938600809385000197AB
:1002900090938800809387002FEF89E698E12150A2
:1002A00080409040E1F700C0000084E690E080DFED
:1002B0008DE690E07DDF2FEF89E698E121508040C8
:1002C0009040E1F700C00000F0CFC298C098809342
:1002D000600087B38A7F87BB88EA8DB980EF8EB9CB
:1002E00008951F920F920FB60F9211248F931092C0
:1002F0008000B89802C0B09902C0B299FCCFB09B00
:100300000AC088EB8DB980EF8EB98F910F900FBE28
:100310000F901F90189588EE8DB980EF8EB98F9150
:100320000F900FBE0F901F9018951F920F920FB64F
:100330000F9211248F939F93EF93FF9380918000EE
:10034000823009F451C000F18430A1F108F444C0B6
:10035000853089F484E0809380008091620081116F
:100360005AC08FB18093630081E0809362001FB810
:10037000B89A8EE78EB9FF91EF919F918F910F9070
:100380000FBE0F901F9018958823B1F1813099F717
:10039000E0916300E930A8F01FB8809163008F5F9F
:1003A0008093630082E080938000B89AC09A80E7CF
:1003B0008EB9E1CF85E080938000B89880E78EB950
:1003C000DACFF0E0EE0FFF1FEF57FF4F0190F08103
:1003D000E02D80818FB9E1CF8FB18823C9F288EAFF
:1003E0008DB980E78EB9C7CFC09883E08093800035
:1003F000B8988EE78EB9BFCF8FB1882331F08FB117
:100400008695909160008913EACF789B14C081E0B3
:1004100080938000ACCFE0916300E93008F0A7CF73
:10042000F0E0EE0FFF1FEF57FF4F0190F081E02D3E
:100430008FB180839CCF1092620084E08093800013
:0604400096CFF894FFCFF7
:02044600410073
:00000001FF
